{
  "contractName": "HistoricalPriceConsumerV3",
  "abi": [
    {
      "inputs": [],
      "stateMutability": "nonpayable",
      "type": "constructor"
    },
    {
      "inputs": [
        {
          "internalType": "uint80",
          "name": "roundsBack",
          "type": "uint80"
        }
      ],
      "name": "getHistoricalPrice",
      "outputs": [
        {
          "internalType": "int256",
          "name": "",
          "type": "int256"
        }
      ],
      "stateMutability": "view",
      "type": "function",
      "constant": true
    }
  ],
  "bytecode": "0x608060405234801561001057600080fd5b50736f09a08feb29c1d517a32b9e77ba78d6e65959846000806101000a81548173ffffffffffffffffffffffffffffffffffffffff021916908373ffffffffffffffffffffffffffffffffffffffff16021790555061028e806100746000396000f3fe608060405234801561001057600080fd5b506004361061002b5760003560e01c8063eec377c014610030575b600080fd5b6100686004803603602081101561004657600080fd5b81019080803569ffffffffffffffffffff16906020019092919050505061007e565b6040518082815260200191505060405180910390f35b6000806000809054906101000a900473ffffffffffffffffffffffffffffffffffffffff1673ffffffffffffffffffffffffffffffffffffffff1663feaf968c6040518163ffffffff1660e01b815260040160a06040518083038186803b1580156100e857600080fd5b505afa1580156100fc573d6000803e3d6000fd5b505050506040513d60a081101561011257600080fd5b8101908080519060200190929190805190602001909291908051906020019092919080519060200190929190805190602001909291905050505050505090506000838203905060008060009054906101000a900473ffffffffffffffffffffffffffffffffffffffff1673ffffffffffffffffffffffffffffffffffffffff16639a6fc8f5836040518263ffffffff1660e01b8152600401808269ffffffffffffffffffff1669ffffffffffffffffffff16815260200191505060a06040518083038186803b1580156101e457600080fd5b505afa1580156101f8573d6000803e3d6000fd5b505050506040513d60a081101561020e57600080fd5b81019080805190602001909291908051906020019092919080519060200190929190805190602001909291908051906020019092919050505050505091505080935050505091905056fea2646970667358221220d08c3f3a0fde9cf8e89309d9be455636a853f1d10969ef15e7f5b476127e8de564736f6c63430006070033",
  "immutableReferences": {},
  "source": "pragma solidity ^0.6.7;\n\nimport \"@chainlink/contracts/src/v0.6/interfaces/AggregatorV3Interface.sol\";\n\ncontract HistoricalPriceConsumerV3 {\n\n    AggregatorV3Interface internal priceFeed;\n\n    /**\n     * Network: Mainnet\n     * Aggregator: ETH/USD\n     * Address: 0x6f09A08FEb29c1d517a32B9e77BA78D6E6595984\n     */\n    constructor() public {\n        priceFeed = AggregatorV3Interface(0x6f09A08FEb29c1d517a32B9e77BA78D6E6595984);\n    }\n\n    /**\n     * Returns the latest price\n     */\n    function getHistoricalPrice(uint80 roundsBack) public view returns (int256) {\n        (uint80 roundId,,,,) = priceFeed.latestRoundData();\n        uint80 historicalRoundId = roundId - roundsBack;\n        (,int256 answer,,,) = priceFeed.getRoundData(historicalRoundId);\n        return answer;\n    }\n}",
  "sourcePath": "/Users/alexroan/Documents/Projects/Blockchain/DApps/ChainlinkAggregatorProxies/contracts/HistoricalPriceConsumerV3.sol",
  "compiler": {
    "name": "solc",
    "version": "0.6.7+commit.b8d736ae.Linux.g++"
  },
  "schemaVersion": "3.2.3",
  "updatedAt": "2020-08-03T17:06:18.803Z",
  "networkType": "ethereum",
  "devdoc": {
    "methods": {}
  },
  "userdoc": {
    "methods": {
      "constructor": "Network: Mainnet Aggregator: ETH/USD Address: 0x6f09A08FEb29c1d517a32B9e77BA78D6E6595984",
      "getHistoricalPrice(uint80)": {
        "notice": "Returns the latest price"
      }
    }
  }
}