{
  "contractName": "PriceConsumerV3",
  "abi": [
    {
      "inputs": [],
      "stateMutability": "nonpayable",
      "type": "constructor"
    },
    {
      "inputs": [],
      "name": "getLatestPrice",
      "outputs": [
        {
          "internalType": "int256",
          "name": "",
          "type": "int256"
        }
      ],
      "stateMutability": "view",
      "type": "function",
      "constant": true
    }
  ],
  "bytecode": "0x608060405234801561001057600080fd5b50736f09a08feb29c1d517a32b9e77ba78d6e65959846000806101000a81548173ffffffffffffffffffffffffffffffffffffffff021916908373ffffffffffffffffffffffffffffffffffffffff16021790555061015e806100746000396000f3fe608060405234801561001057600080fd5b506004361061002b5760003560e01c80638e15f47314610030575b600080fd5b61003861004e565b6040518082815260200191505060405180910390f35b6000806000809054906101000a900473ffffffffffffffffffffffffffffffffffffffff1673ffffffffffffffffffffffffffffffffffffffff1663feaf968c6040518163ffffffff1660e01b815260040160a06040518083038186803b1580156100b857600080fd5b505afa1580156100cc573d6000803e3d6000fd5b505050506040513d60a08110156100e257600080fd5b810190808051906020019092919080519060200190929190805190602001909291908051906020019092919080519060200190929190505050505050915050809150509056fea26469706673582212205292319ce67f3309e77d72115bb23efe71c3f18d80e56d259fa031ee23ea421e64736f6c63430006070033",
  "immutableReferences": {},
  "source": "pragma solidity ^0.6.7;\n\nimport \"@chainlink/contracts/src/v0.6/interfaces/AggregatorV3Interface.sol\";\n\ncontract PriceConsumerV3 {\n\n    AggregatorV3Interface internal priceFeed;\n\n    /**\n     * Network: Mainnet\n     * Aggregator: ETH/USD\n     * Address: 0x6f09A08FEb29c1d517a32B9e77BA78D6E6595984\n     */\n    constructor() public {\n        priceFeed = AggregatorV3Interface(0x6f09A08FEb29c1d517a32B9e77BA78D6E6595984);\n    }\n\n    /**\n     * Returns the latest price\n     */\n    function getLatestPrice() public view returns (int256) {\n        (,int256 answer,,,) = priceFeed.latestRoundData();\n        return answer;\n    }\n}",
  "sourcePath": "/Users/alexroan/Documents/Projects/Blockchain/DApps/ChainlinkAggregatorProxies/contracts/PriceConsumerV3.sol",
  "compiler": {
    "name": "solc",
    "version": "0.6.7+commit.b8d736ae.Linux.g++"
  },
  "schemaVersion": "3.2.3",
  "updatedAt": "2020-08-03T17:06:18.801Z",
  "networkType": "ethereum",
  "devdoc": {
    "methods": {}
  },
  "userdoc": {
    "methods": {
      "constructor": "Network: Mainnet Aggregator: ETH/USD Address: 0x6f09A08FEb29c1d517a32B9e77BA78D6E6595984",
      "getLatestPrice()": {
        "notice": "Returns the latest price"
      }
    }
  }
}