{
  "contractName": "PriceConsumer",
  "abi": [
    {
      "inputs": [],
      "stateMutability": "nonpayable",
      "type": "constructor"
    },
    {
      "inputs": [],
      "name": "getLatestPrice",
      "outputs": [
        {
          "internalType": "int256",
          "name": "",
          "type": "int256"
        }
      ],
      "stateMutability": "view",
      "type": "function",
      "constant": true
    },
    {
      "inputs": [],
      "name": "getLatestPriceTimestamp",
      "outputs": [
        {
          "internalType": "uint256",
          "name": "",
          "type": "uint256"
        }
      ],
      "stateMutability": "view",
      "type": "function",
      "constant": true
    }
  ],
  "bytecode": "0x608060405234801561001057600080fd5b5073f79d6afbb6da890132f9d7c355e3015f15f3406f6000806101000a81548173ffffffffffffffffffffffffffffffffffffffff021916908373ffffffffffffffffffffffffffffffffffffffff1602179055506101ff806100746000396000f3fe608060405234801561001057600080fd5b50600436106100365760003560e01c80630d0d2b011461003b5780638e15f47314610059575b600080fd5b610043610077565b6040518082815260200191505060405180910390f35b610061610120565b6040518082815260200191505060405180910390f35b60008060009054906101000a900473ffffffffffffffffffffffffffffffffffffffff1673ffffffffffffffffffffffffffffffffffffffff16638205bf6a6040518163ffffffff1660e01b815260040160206040518083038186803b1580156100e057600080fd5b505afa1580156100f4573d6000803e3d6000fd5b505050506040513d602081101561010a57600080fd5b8101908080519060200190929190505050905090565b60008060009054906101000a900473ffffffffffffffffffffffffffffffffffffffff1673ffffffffffffffffffffffffffffffffffffffff166350d25bcd6040518163ffffffff1660e01b815260040160206040518083038186803b15801561018957600080fd5b505afa15801561019d573d6000803e3d6000fd5b505050506040513d60208110156101b357600080fd5b810190808051906020019092919050505090509056fea26469706673582212207fa3ce6f4d644d8e68239ada5449c4dc14f68ad2433c31c38058a3a62c55907a64736f6c63430006070033",
  "immutableReferences": {},
  "source": "pragma solidity ^0.6.7;\n\nimport \"@chainlink/contracts/src/v0.6/interfaces/AggregatorInterface.sol\";\n\ncontract PriceConsumer {\n\n    AggregatorInterface internal priceFeed;\n  \n    /**\n     * Network: Mainnet\n     * Aggregator: ETH/USD\n     * Address: 0xF79D6aFBb6dA890132F9D7c355e3015f15F3406F\n     */\n    constructor() public {\n        priceFeed = AggregatorInterface(0xF79D6aFBb6dA890132F9D7c355e3015f15F3406F);\n    }\n  \n    /**\n     * Returns the latest price\n     */\n    function getLatestPrice() public view returns (int256) {\n        return priceFeed.latestAnswer();\n    }\n\n    /**\n     * Returns the timestamp of the latest price update\n     */\n    function getLatestPriceTimestamp() public view returns (uint256) {\n        return priceFeed.latestTimestamp();\n    }\n}",
  "sourcePath": "/Users/alexroan/Documents/Projects/Blockchain/DApps/ChainlinkAggregatorProxies/contracts/PriceConsumer.sol",
  "compiler": {
    "name": "solc",
    "version": "0.6.7+commit.b8d736ae.Linux.g++"
  },
  "schemaVersion": "3.2.3",
  "updatedAt": "2020-08-03T16:54:01.944Z",
  "networkType": "ethereum",
  "devdoc": {
    "methods": {}
  },
  "userdoc": {
    "methods": {
      "constructor": "Network: Mainnet Aggregator: ETH/USD Address: 0xF79D6aFBb6dA890132F9D7c355e3015f15F3406F",
      "getLatestPrice()": {
        "notice": "Returns the latest price"
      },
      "getLatestPriceTimestamp()": {
        "notice": "Returns the timestamp of the latest price update"
      }
    }
  }
}